:030000000208C330
:0C08C300787FE4F6D8FD7581070208007C
:10080000D2A0C291D2927FD07E0712089DC291C21F
:1008100092C293C294C29520A0FDD291C292D2936B
:10082000C294C2957F707E1712089DC291C292C277
:1008300093D294C2957FD07E0712086B12086BEF9B
:1008400064014E60E6C291D292C293C294D2957F67
:10085000B87E0B12086B12086BEF64014E60BBC2CE
:0B08600091C292C293C294C29580AC7A
:10089D00E4FDFCC3ED9FEE6480F8EC648098501588
:1008AD00E4FBFA0BBB00010AEB64644A70F50DBD65
:0508BD0000010C80DECB
:0108C2002213
:10086B00E4FDFCC3ED9FEE6480F8EC6480985021AE
:10087B00E4FBFA20A009C291C2927E007F01220BF9
:10088B00BB00010AEB64644A70E90DBD00010C80EA
:01089B00D28A
:01089C002239
:00000001FF
